{
  "contractName": "Boomerang",
  "abi": [
    {
      "anonymous": false,
      "inputs": [
        {
          "indexed": true,
          "internalType": "uint256",
          "name": "id",
          "type": "uint256"
        },
        {
          "indexed": false,
          "internalType": "address",
          "name": "creator",
          "type": "address"
        }
      ],
      "name": "BoomerangCheckedIn",
      "type": "event"
    },
    {
      "anonymous": false,
      "inputs": [
        {
          "indexed": true,
          "internalType": "uint256",
          "name": "id",
          "type": "uint256"
        },
        {
          "indexed": false,
          "internalType": "uint256",
          "name": "expiryTime",
          "type": "uint256"
        },
        {
          "indexed": false,
          "internalType": "uint256",
          "name": "updateFrequency",
          "type": "uint256"
        },
        {
          "indexed": false,
          "internalType": "address",
          "name": "creator",
          "type": "address"
        }
      ],
      "name": "BoomerangCreated",
      "type": "event"
    },
    {
      "inputs": [
        {
          "internalType": "uint256",
          "name": "",
          "type": "uint256"
        }
      ],
      "name": "boomerangs",
      "outputs": [
        {
          "internalType": "uint256",
          "name": "expiryTime",
          "type": "uint256"
        },
        {
          "internalType": "uint256",
          "name": "updateFrequency",
          "type": "uint256"
        },
        {
          "internalType": "uint256",
          "name": "lastCheckInTime",
          "type": "uint256"
        },
        {
          "internalType": "address",
          "name": "creator",
          "type": "address"
        }
      ],
      "stateMutability": "view",
      "type": "function"
    },
    {
      "inputs": [],
      "name": "totalBoomerangs",
      "outputs": [
        {
          "internalType": "uint256",
          "name": "",
          "type": "uint256"
        }
      ],
      "stateMutability": "view",
      "type": "function"
    },
    {
      "inputs": [
        {
          "internalType": "uint256",
          "name": "expiryTime",
          "type": "uint256"
        },
        {
          "internalType": "uint256",
          "name": "updateFrequency",
          "type": "uint256"
        }
      ],
      "name": "createBoomerang",
      "outputs": [],
      "stateMutability": "nonpayable",
      "type": "function"
    },
    {
      "inputs": [
        {
          "internalType": "uint256",
          "name": "id",
          "type": "uint256"
        }
      ],
      "name": "checkIn",
      "outputs": [],
      "stateMutability": "nonpayable",
      "type": "function"
    },
    {
      "inputs": [
        {
          "internalType": "uint256",
          "name": "id",
          "type": "uint256"
        }
      ],
      "name": "isExpired",
      "outputs": [
        {
          "internalType": "bool",
          "name": "",
          "type": "bool"
        }
      ],
      "stateMutability": "view",
      "type": "function"
    },
    {
      "inputs": [
        {
          "internalType": "uint256",
          "name": "id",
          "type": "uint256"
        }
      ],
      "name": "isUnlocked",
      "outputs": [
        {
          "internalType": "bool",
          "name": "",
          "type": "bool"
        }
      ],
      "stateMutability": "view",
      "type": "function"
    },
    {
      "inputs": [],
      "name": "getTotalBoomerangs",
      "outputs": [
        {
          "internalType": "uint256",
          "name": "",
          "type": "uint256"
        }
      ],
      "stateMutability": "view",
      "type": "function"
    },
    {
      "inputs": [
        {
          "internalType": "uint256",
          "name": "id",
          "type": "uint256"
        }
      ],
      "name": "getBoomerangInfo",
      "outputs": [
        {
          "internalType": "uint256",
          "name": "",
          "type": "uint256"
        },
        {
          "internalType": "uint256",
          "name": "",
          "type": "uint256"
        },
        {
          "internalType": "uint256",
          "name": "",
          "type": "uint256"
        },
        {
          "internalType": "address",
          "name": "",
          "type": "address"
        }
      ],
      "stateMutability": "view",
      "type": "function"
    }
  ],
  "bytecode": "0x608060405234801561001057600080fd5b506109d3806100206000396000f3fe608060405234801561001057600080fd5b50600436106100885760003560e01c8063c73380b61161005b578063c73380b614610115578063d9548e5314610148578063e95a644f14610178578063fcece4bd1461019457610088565b8063054da5411461008d5780634843dbef146100ab57806372abc8b7146100c757806397306b98146100f7575b600080fd5b6100956101c7565b6040516100a291906107ea565b60405180910390f35b6100c560048036038101906100c091906105df565b6101d1565b005b6100e160048036038101906100dc91906105b6565b610320565b6040516100ee919061076f565b60405180910390f35b6100ff610342565b60405161010c91906107ea565b60405180910390f35b61012f600480360381019061012a91906105b6565b610348565b60405161013f949392919061083c565b60405180910390f35b610162600480360381019061015d91906105b6565b610398565b60405161016f919061076f565b60405180910390f35b610192600480360381019061018d91906105b6565b6103aa565b005b6101ae60048036038101906101a991906105b6565b6104e6565b6040516101be949392919061083c565b60405180910390f35b6000600154905090565b428211610213576040517f08c379a000000000000000000000000000000000000000000000000000000000815260040161020a9061078a565b60405180910390fd5b60405180608001604052808381526020018281526020014281526020013373ffffffffffffffffffffffffffffffffffffffff16815250600080600154815260200190815260200160002060008201518160000155602082015181600101556040820151816002015560608201518160030160006101000a81548173ffffffffffffffffffffffffffffffffffffffff021916908373ffffffffffffffffffffffffffffffffffffffff1602179055509050506001547f65f02266318ba92f98cfe4f9212f12e7e2e75d7e4d84794919389d0a47a04b758383336040516102fc93929190610805565b60405180910390a2600160008154809291906103179061090e565b91905055505050565b600061032b82610546565b8061033b575061033a8261057b565b5b9050919050565b60015481565b60006020528060005260406000206000915090508060000154908060010154908060020154908060030160009054906101000a900473ffffffffffffffffffffffffffffffffffffffff16905084565b60006103a38261057b565b9050919050565b600080600083815260200190815260200160002090508060030160009054906101000a900473ffffffffffffffffffffffffffffffffffffffff1673ffffffffffffffffffffffffffffffffffffffff163373ffffffffffffffffffffffffffffffffffffffff1614610452576040517f08c379a0000000000000000000000000000000000000000000000000000000008152600401610449906107ca565b60405180910390fd5b6000151561045f83610546565b1515146104a1576040517f08c379a0000000000000000000000000000000000000000000000000000000008152600401610498906107aa565b60405180910390fd5b428160020181905550817f308ded89d772ea88a881e503b093d50df2052d0eee11ec57dd2bbd8268fb7421336040516104da9190610754565b60405180910390a25050565b600080600080600080600087815260200190815260200160002090508060000154816001015482600201548360030160009054906101000a900473ffffffffffffffffffffffffffffffffffffffff169450945094509450509193509193565b600080600080848152602001908152602001600020905080600101548160020154426105729190610892565b11915050919050565b600080600080848152602001908152602001600020905080600001544211915050919050565b6000813590506105b081610986565b92915050565b6000602082840312156105c857600080fd5b60006105d6848285016105a1565b91505092915050565b600080604083850312156105f257600080fd5b6000610600858286016105a1565b9250506020610611858286016105a1565b9150509250929050565b610624816108c6565b82525050565b610633816108d8565b82525050565b6000610646602183610881565b91507f4578706972792074696d65206d75737420626520696e2074686520667574757260008301527f65000000000000000000000000000000000000000000000000000000000000006020830152604082019050919050565b60006106ac602083610881565b91507f426f6f6d6572616e6720697320756e6c6f636b6564206f7220657870697265646000830152602082019050919050565b60006106ec602983610881565b91507f4f6e6c79207468652063726561746f722063616e20636865636b20696e20612060008301527f426f6f6d6572616e6700000000000000000000000000000000000000000000006020830152604082019050919050565b61074e81610904565b82525050565b6000602082019050610769600083018461061b565b92915050565b6000602082019050610784600083018461062a565b92915050565b600060208201905081810360008301526107a381610639565b9050919050565b600060208201905081810360008301526107c38161069f565b9050919050565b600060208201905081810360008301526107e3816106df565b9050919050565b60006020820190506107ff6000830184610745565b92915050565b600060608201905061081a6000830186610745565b6108276020830185610745565b610834604083018461061b565b949350505050565b60006080820190506108516000830187610745565b61085e6020830186610745565b61086b6040830185610745565b610878606083018461061b565b95945050505050565b600082825260208201905092915050565b600061089d82610904565b91506108a883610904565b9250828210156108bb576108ba610957565b5b828203905092915050565b60006108d1826108e4565b9050919050565b60008115159050919050565b600073ffffffffffffffffffffffffffffffffffffffff82169050919050565b6000819050919050565b600061091982610904565b91507fffffffffffffffffffffffffffffffffffffffffffffffffffffffffffffffff82141561094c5761094b610957565b5b600182019050919050565b7f4e487b7100000000000000000000000000000000000000000000000000000000600052601160045260246000fd5b61098f81610904565b811461099a57600080fd5b5056fea26469706673582212203d2d67484ce30f4f06f77eb41acde9edf7e264fc06d0b02d328e947fe864976564736f6c63430008000033",
  "immutableReferences": {},
  "source": "// SPDX-License-Identifier: MIT\n\npragma solidity ^0.8.0;\n\ncontract Boomerang {\n    struct BoomerangInfo {\n        uint256 expiryTime;\n        uint256 updateFrequency;\n        uint256 lastCheckInTime;\n        address creator;\n    }\n\n    mapping(uint256 => BoomerangInfo) public boomerangs;\n    uint256 public totalBoomerangs;\n\n    event BoomerangCreated(uint256 indexed id, uint256 expiryTime, uint256 updateFrequency, address creator);\n    event BoomerangCheckedIn(uint256 indexed id, address creator);\n\n    function createBoomerang(uint256 expiryTime, uint256 updateFrequency) external {\n        require(expiryTime > block.timestamp, \"Expiry time must be in the future\");\n        boomerangs[totalBoomerangs] = BoomerangInfo(expiryTime, updateFrequency, block.timestamp, msg.sender);\n        emit BoomerangCreated(totalBoomerangs, expiryTime, updateFrequency, msg.sender);\n        totalBoomerangs++;\n    }\n\n    function checkIn(uint256 id) external {\n        BoomerangInfo storage boomerang = boomerangs[id];\n        require(msg.sender == boomerang.creator, \"Only the creator can check in a Boomerang\");\n        require(checkIfUnlocked(id) == false, \"Boomerang is unlocked or expired\");\n\n        boomerang.lastCheckInTime = block.timestamp;\n        emit BoomerangCheckedIn(id, msg.sender);\n    }\n\n    function isExpired(uint256 id) external view returns (bool) {\n        return checkIfExpired(id);\n    }\n\n    function isUnlocked(uint256 id) external view returns (bool) {\n        return checkIfUnlocked(id) || checkIfExpired(id);\n    }\n\n    function checkIfUnlocked(uint256 id) internal view returns (bool) {\n        BoomerangInfo storage boomerang = boomerangs[id];\n        return (block.timestamp - boomerang.lastCheckInTime) > boomerang.updateFrequency;\n    }\n\n    function checkIfExpired(uint256 id) internal view returns (bool) {\n        BoomerangInfo storage boomerang = boomerangs[id];\n        return block.timestamp > boomerang.expiryTime;\n    }\n\n    function getTotalBoomerangs() external view returns (uint256) {\n        return totalBoomerangs;\n    }\n\n    function getBoomerangInfo(uint256 id) external view returns (uint256, uint256, uint256, address) {\n        BoomerangInfo storage boomerang = boomerangs[id];\n        return (boomerang.expiryTime, boomerang.updateFrequency, boomerang.lastCheckInTime, boomerang.creator);\n    }\n    \n}\n",
  "sourcePath": "/Users/rex/Documents/Programming/Fun/boomerang/contracts/Boomerang.sol",
  "compiler": {
    "name": "solc",
    "version": "0.8.0+commit.c7dfd78e.Emscripten.clang"
  },
  "schemaVersion": "3.4.13",
  "updatedAt": "2023-03-31T10:06:32.619Z",
  "devdoc": {
    "kind": "dev",
    "methods": {},
    "version": 1
  },
  "userdoc": {
    "kind": "user",
    "methods": {},
    "version": 1
  }
}